{
  "_format": "hh-sol-artifact-1",
  "contractName": "SnipingBot",
  "sourceName": "contracts/SnipingBot.sol",
  "abi": [
    {
      "inputs": [
        {
          "internalType": "address",
          "name": "_uniswapRouter",
          "type": "address"
        },
        {
          "internalType": "address",
          "name": "_uniswapFactory",
          "type": "address"
        }
      ],
      "stateMutability": "nonpayable",
      "type": "constructor"
    },
    {
      "anonymous": false,
      "inputs": [
        {
          "indexed": true,
          "internalType": "address",
          "name": "previousOwner",
          "type": "address"
        },
        {
          "indexed": true,
          "internalType": "address",
          "name": "newOwner",
          "type": "address"
        }
      ],
      "name": "OwnershipTransferred",
      "type": "event"
    },
    {
      "anonymous": false,
      "inputs": [
        {
          "indexed": true,
          "internalType": "address",
          "name": "token0",
          "type": "address"
        },
        {
          "indexed": true,
          "internalType": "address",
          "name": "token1",
          "type": "address"
        },
        {
          "indexed": false,
          "internalType": "uint256",
          "name": "profit",
          "type": "uint256"
        },
        {
          "indexed": false,
          "internalType": "uint256",
          "name": "timestamp",
          "type": "uint256"
        }
      ],
      "name": "ProfitableOpportunity",
      "type": "event"
    },
    {
      "anonymous": false,
      "inputs": [
        {
          "indexed": true,
          "internalType": "address",
          "name": "token0",
          "type": "address"
        },
        {
          "indexed": true,
          "internalType": "address",
          "name": "token1",
          "type": "address"
        },
        {
          "indexed": false,
          "internalType": "uint256",
          "name": "amountIn",
          "type": "uint256"
        },
        {
          "indexed": false,
          "internalType": "uint256",
          "name": "amountOut",
          "type": "uint256"
        },
        {
          "indexed": false,
          "internalType": "uint256",
          "name": "timestamp",
          "type": "uint256"
        }
      ],
      "name": "TradeExecuted",
      "type": "event"
    },
    {
      "stateMutability": "payable",
      "type": "fallback"
    },
    {
      "inputs": [
        {
          "internalType": "address",
          "name": "tokenA",
          "type": "address"
        },
        {
          "internalType": "address",
          "name": "tokenB",
          "type": "address"
        },
        {
          "internalType": "uint256",
          "name": "amountIn",
          "type": "uint256"
        }
      ],
      "name": "checkPriceArbitrage",
      "outputs": [
        {
          "internalType": "uint256",
          "name": "potentialProfit",
          "type": "uint256"
        }
      ],
      "stateMutability": "view",
      "type": "function"
    },
    {
      "inputs": [
        {
          "internalType": "address",
          "name": "tokenA",
          "type": "address"
        },
        {
          "internalType": "address",
          "name": "tokenB",
          "type": "address"
        },
        {
          "internalType": "uint256",
          "name": "amountIn",
          "type": "uint256"
        }
      ],
      "name": "executeSnipe",
      "outputs": [],
      "stateMutability": "nonpayable",
      "type": "function"
    },
    {
      "inputs": [],
      "name": "owner",
      "outputs": [
        {
          "internalType": "address",
          "name": "",
          "type": "address"
        }
      ],
      "stateMutability": "view",
      "type": "function"
    },
    {
      "inputs": [],
      "name": "renounceOwnership",
      "outputs": [],
      "stateMutability": "nonpayable",
      "type": "function"
    },
    {
      "inputs": [
        {
          "internalType": "address",
          "name": "newOwner",
          "type": "address"
        }
      ],
      "name": "transferOwnership",
      "outputs": [],
      "stateMutability": "nonpayable",
      "type": "function"
    },
    {
      "inputs": [],
      "name": "uniswapFactory",
      "outputs": [
        {
          "internalType": "contract IUniswapV2Factory",
          "name": "",
          "type": "address"
        }
      ],
      "stateMutability": "view",
      "type": "function"
    },
    {
      "inputs": [],
      "name": "uniswapRouter",
      "outputs": [
        {
          "internalType": "contract IUniswapV2Router02",
          "name": "",
          "type": "address"
        }
      ],
      "stateMutability": "view",
      "type": "function"
    },
    {
      "inputs": [
        {
          "internalType": "address",
          "name": "token",
          "type": "address"
        },
        {
          "internalType": "bool",
          "name": "status",
          "type": "bool"
        }
      ],
      "name": "whitelistToken",
      "outputs": [],
      "stateMutability": "nonpayable",
      "type": "function"
    },
    {
      "inputs": [
        {
          "internalType": "address",
          "name": "",
          "type": "address"
        }
      ],
      "name": "whitelistedTokens",
      "outputs": [
        {
          "internalType": "bool",
          "name": "",
          "type": "bool"
        }
      ],
      "stateMutability": "view",
      "type": "function"
    },
    {
      "inputs": [],
      "name": "withdrawETH",
      "outputs": [],
      "stateMutability": "nonpayable",
      "type": "function"
    },
    {
      "inputs": [
        {
          "internalType": "address",
          "name": "token",
          "type": "address"
        },
        {
          "internalType": "uint256",
          "name": "amount",
          "type": "uint256"
        }
      ],
      "name": "withdrawToken",
      "outputs": [],
      "stateMutability": "nonpayable",
      "type": "function"
    },
    {
      "stateMutability": "payable",
      "type": "receive"
    }
  ],
  "bytecode": "0x60c06040523480156200001157600080fd5b506040516200112c3803806200112c83398101604081905262000034916200018a565b6200003f336200011d565b600180556001600160a01b0382166200009f5760405162461bcd60e51b815260206004820152601660248201527f496e76616c696420726f7574657220616464726573730000000000000000000060448201526064015b60405180910390fd5b6001600160a01b038116620000f75760405162461bcd60e51b815260206004820152601760248201527f496e76616c696420666163746f72792061646472657373000000000000000000604482015260640162000096565b6001600160a01b03808316608052811660a05262000115336200011d565b5050620001c2565b600080546001600160a01b038381166001600160a01b0319831681178455604051919092169283917f8be0079c531659141344cd1fd0a4f28419497f9722a3daafe3b4186f6b6457e09190a35050565b80516001600160a01b03811681146200018557600080fd5b919050565b600080604083850312156200019e57600080fd5b620001a9836200016d565b9150620001b9602084016200016d565b90509250929050565b60805160a051610f2f620001fd600039600061015b01526000818161010a0152818161046e0152818161056f01526108f00152610f2f6000f3fe60806040526004361061009a5760003560e01c80638da5cb5b116100615780638da5cb5b1461017d5780639e281a981461019b578063b0ec6611146101bb578063daf9c210146101e9578063e086e5ec14610229578063f2fde38b1461023e57005b80630ffb1d8b146100a35780631002f013146100c3578063715018a6146100e3578063735de9f7146100f85780638bdb2afa1461014957005b366100a157005b005b3480156100af57600080fd5b506100a16100be366004610c50565b61025e565b3480156100cf57600080fd5b506100a16100de366004610c87565b6102e4565b3480156100ef57600080fd5b506100a161068e565b34801561010457600080fd5b5061012c7f000000000000000000000000000000000000000000000000000000000000000081565b6040516001600160a01b0390911681526020015b60405180910390f35b34801561015557600080fd5b5061012c7f000000000000000000000000000000000000000000000000000000000000000081565b34801561018957600080fd5b506000546001600160a01b031661012c565b3480156101a757600080fd5b506100a16101b6366004610cc3565b6106a2565b3480156101c757600080fd5b506101db6101d6366004610c87565b6107da565b604051908152602001610140565b3480156101f557600080fd5b50610219610204366004610ced565b60026020526000908152604090205460ff1681565b6040519015158152602001610140565b34801561023557600080fd5b506100a16109c2565b34801561024a57600080fd5b506100a1610259366004610ced565b610aaa565b610266610b23565b6001600160a01b0382166102b95760405162461bcd60e51b8152602060048201526015602482015274496e76616c696420746f6b656e206164647265737360581b60448201526064015b60405180910390fd5b6001600160a01b03919091166000908152600260205260409020805460ff1916911515919091179055565b6102ec610b23565b6102f4610b7d565b6001600160a01b03831660009081526002602052604090205460ff16801561033457506001600160a01b03821660009081526002602052604090205460ff165b6103795760405162461bcd60e51b8152602060048201526016602482015275151bdad95b9cc81b9bdd081dda1a5d195b1a5cdd195960521b60448201526064016102b0565b60006103868484846107da565b9050662386f26fc100008110156103df5760405162461bcd60e51b815260206004820152601a60248201527f496e73756666696369656e742070726f666974206d617267696e00000000000060448201526064016102b0565b6040516323b872dd60e01b8152336004820152306024820152604481018390526001600160a01b038516906323b872dd906064016020604051808303816000875af1158015610432573d6000803e3d6000fd5b505050506040513d601f19601f820116820180604052508101906104569190610d0f565b5060405163095ea7b360e01b81526001600160a01b037f0000000000000000000000000000000000000000000000000000000000000000811660048301526024820184905285169063095ea7b3906044016020604051808303816000875af11580156104c6573d6000803e3d6000fd5b505050506040513d601f19601f820116820180604052508101906104ea9190610d0f565b50604080516002808252606082018352600092602083019080368337019050509050848160008151811061052057610520610d42565b60200260200101906001600160a01b031690816001600160a01b031681525050838160018151811061055457610554610d42565b6001600160a01b0392831660209182029290920101526000907f0000000000000000000000000000000000000000000000000000000000000000166338ed1739858385306105a461012c42610d6e565b6040518663ffffffff1660e01b81526004016105c4959493929190610dcb565b6000604051808303816000875af11580156105e3573d6000803e3d6000fd5b505050506040513d6000823e601f3d908101601f1916820160405261060b9190810190610e07565b9050846001600160a01b0316866001600160a01b03167fcfaae44f59cdc0459335ad7fa6324241a4e86a442fc914e1aea4f2076aba7a50868460018151811061065657610656610d42565b6020908102919091018101516040805193845291830152429082015260600160405180910390a350505061068960018055565b505050565b610696610b23565b6106a06000610bd6565b565b6106aa610b23565b6001600160a01b0382166106f85760405162461bcd60e51b8152602060048201526015602482015274496e76616c696420746f6b656e206164647265737360581b60448201526064016102b0565b600081116107485760405162461bcd60e51b815260206004820152601d60248201527f416d6f756e74206d7573742062652067726561746572207468616e203000000060448201526064016102b0565b816001600160a01b031663a9059cbb6107696000546001600160a01b031690565b6040516001600160e01b031960e084901b1681526001600160a01b039091166004820152602481018490526044016020604051808303816000875af11580156107b6573d6000803e3d6000fd5b505050506040513d601f19601f820116820180604052508101906106899190610d0f565b6001600160a01b03831660009081526002602052604081205460ff16801561081a57506001600160a01b03831660009081526002602052604090205460ff165b61085f5760405162461bcd60e51b8152602060048201526016602482015275151bdad95b9cc81b9bdd081dda1a5d195b1a5cdd195960521b60448201526064016102b0565b604080516002808252606082018352600092602083019080368337019050509050848160008151811061089457610894610d42565b60200260200101906001600160a01b031690816001600160a01b03168152505083816001815181106108c8576108c8610d42565b6001600160a01b03928316602091820292909201015260405163d06ca61f60e01b81526000917f0000000000000000000000000000000000000000000000000000000000000000169063d06ca61f906109279087908690600401610ec5565b600060405180830381865afa158015610944573d6000803e3d6000fd5b505050506040513d6000823e601f3d908101601f1916820160405261096c9190810190610e07565b9050838160018151811061098257610982610d42565b602002602001015111156109b95783816001815181106109a4576109a4610d42565b60200260200101516109b69190610ee6565b92505b50509392505050565b6109ca610b23565b4780610a0d5760405162461bcd60e51b81526020600482015260126024820152714e6f2045544820746f20776974686472617760701b60448201526064016102b0565b600080546040516001600160a01b039091169083908381818185875af1925050503d8060008114610a5a576040519150601f19603f3d011682016040523d82523d6000602084013e610a5f565b606091505b5050905080610aa65760405162461bcd60e51b8152602060048201526013602482015272115512081d1c985b9cd9995c8819985a5b1959606a1b60448201526064016102b0565b5050565b610ab2610b23565b6001600160a01b038116610b175760405162461bcd60e51b815260206004820152602660248201527f4f776e61626c653a206e6577206f776e657220697320746865207a65726f206160448201526564647265737360d01b60648201526084016102b0565b610b2081610bd6565b50565b6000546001600160a01b031633146106a05760405162461bcd60e51b815260206004820181905260248201527f4f776e61626c653a2063616c6c6572206973206e6f7420746865206f776e657260448201526064016102b0565b600260015403610bcf5760405162461bcd60e51b815260206004820152601f60248201527f5265656e7472616e637947756172643a207265656e7472616e742063616c6c0060448201526064016102b0565b6002600155565b600080546001600160a01b038381166001600160a01b0319831681178455604051919092169283917f8be0079c531659141344cd1fd0a4f28419497f9722a3daafe3b4186f6b6457e09190a35050565b80356001600160a01b0381168114610c3d57600080fd5b919050565b8015158114610b2057600080fd5b60008060408385031215610c6357600080fd5b610c6c83610c26565b91506020830135610c7c81610c42565b809150509250929050565b600080600060608486031215610c9c57600080fd5b610ca584610c26565b9250610cb360208501610c26565b9150604084013590509250925092565b60008060408385031215610cd657600080fd5b610cdf83610c26565b946020939093013593505050565b600060208284031215610cff57600080fd5b610d0882610c26565b9392505050565b600060208284031215610d2157600080fd5b8151610d0881610c42565b634e487b7160e01b600052604160045260246000fd5b634e487b7160e01b600052603260045260246000fd5b634e487b7160e01b600052601160045260246000fd5b80820180821115610d8157610d81610d58565b92915050565b600081518084526020808501945080840160005b83811015610dc05781516001600160a01b031687529582019590820190600101610d9b565b509495945050505050565b85815284602082015260a060408201526000610dea60a0830186610d87565b6001600160a01b0394909416606083015250608001529392505050565b60006020808385031215610e1a57600080fd5b825167ffffffffffffffff80821115610e3257600080fd5b818501915085601f830112610e4657600080fd5b815181811115610e5857610e58610d2c565b8060051b604051601f19603f83011681018181108582111715610e7d57610e7d610d2c565b604052918252848201925083810185019188831115610e9b57600080fd5b938501935b82851015610eb957845184529385019392850192610ea0565b98975050505050505050565b828152604060208201526000610ede6040830184610d87565b949350505050565b81810381811115610d8157610d81610d5856fea2646970667358221220abf23c7b2a664ade205efe601fc95816476205f8fda9098647050de9197c1fbf64736f6c63430008130033",
  "linkReferences": {},
  "deployedLinkReferences": {}
}