{
  "_format": "hh-sol-artifact-1",
  "contractName": "MockUniswapFactory",
  "sourceName": "contracts/mocks/MockUniswapFactory.sol",
  "abi": [
    {
      "inputs": [
        {
          "internalType": "address",
          "name": "tokenA",
          "type": "address"
        },
        {
          "internalType": "address",
          "name": "tokenB",
          "type": "address"
        }
      ],
      "name": "getPair",
      "outputs": [
        {
          "internalType": "address",
          "name": "",
          "type": "address"
        }
      ],
      "stateMutability": "view",
      "type": "function"
    },
    {
      "inputs": [
        {
          "internalType": "address",
          "name": "",
          "type": "address"
        },
        {
          "internalType": "address",
          "name": "",
          "type": "address"
        }
      ],
      "name": "pairs",
      "outputs": [
        {
          "internalType": "address",
          "name": "",
          "type": "address"
        }
      ],
      "stateMutability": "view",
      "type": "function"
    },
    {
      "inputs": [
        {
          "internalType": "address",
          "name": "tokenA",
          "type": "address"
        },
        {
          "internalType": "address",
          "name": "tokenB",
          "type": "address"
        },
        {
          "internalType": "address",
          "name": "pair",
          "type": "address"
        }
      ],
      "name": "setPair",
      "outputs": [],
      "stateMutability": "nonpayable",
      "type": "function"
    }
  ],
  "bytecode": "0x608060405234801561001057600080fd5b506101f8806100206000396000f3fe608060405234801561001057600080fd5b50600436106100415760003560e01c806369454b86146100465780637bb4101214610093578063e6a43905146100fa575b600080fd5b61007761005436600461014c565b60006020818152928152604080822090935290815220546001600160a01b031681565b6040516001600160a01b03909116815260200160405180910390f35b6100f86100a136600461017f565b6001600160a01b0392831660008181526020818152604080832095871683529481528482208054969094166001600160a01b0319968716811790945581815284822092825291909152919091208054909216179055565b005b61007761010836600461014c565b6001600160a01b03918216600090815260208181526040808320938516835292905220541690565b80356001600160a01b038116811461014757600080fd5b919050565b6000806040838503121561015f57600080fd5b61016883610130565b915061017660208401610130565b90509250929050565b60008060006060848603121561019457600080fd5b61019d84610130565b92506101ab60208501610130565b91506101b960408501610130565b9050925092509256fea2646970667358221220bd40555301f62fc2a48f73ef9171ee6e7c21c7e291ca84e01968eeb7d59bea0864736f6c63430008130033",
  "linkReferences": {},
  "deployedLinkReferences": {}
}