{
  "_format": "hh-sol-artifact-1",
  "contractName": "MockUniswapRouter",
  "sourceName": "contracts/mocks/MockUniswapRouter.sol",
  "abi": [
    {
      "inputs": [
        {
          "internalType": "address",
          "name": "_factory",
          "type": "address"
        }
      ],
      "stateMutability": "nonpayable",
      "type": "constructor"
    },
    {
      "inputs": [],
      "name": "MOCK_RATE",
      "outputs": [
        {
          "internalType": "uint256",
          "name": "",
          "type": "uint256"
        }
      ],
      "stateMutability": "view",
      "type": "function"
    },
    {
      "inputs": [],
      "name": "RATE_DENOMINATOR",
      "outputs": [
        {
          "internalType": "uint256",
          "name": "",
          "type": "uint256"
        }
      ],
      "stateMutability": "view",
      "type": "function"
    },
    {
      "inputs": [],
      "name": "factory",
      "outputs": [
        {
          "internalType": "contract MockUniswapFactory",
          "name": "",
          "type": "address"
        }
      ],
      "stateMutability": "view",
      "type": "function"
    },
    {
      "inputs": [
        {
          "internalType": "uint256",
          "name": "amountIn",
          "type": "uint256"
        },
        {
          "internalType": "address[]",
          "name": "path",
          "type": "address[]"
        }
      ],
      "name": "getAmountsOut",
      "outputs": [
        {
          "internalType": "uint256[]",
          "name": "amounts",
          "type": "uint256[]"
        }
      ],
      "stateMutability": "pure",
      "type": "function"
    },
    {
      "inputs": [
        {
          "internalType": "uint256",
          "name": "amountIn",
          "type": "uint256"
        },
        {
          "internalType": "uint256",
          "name": "amountOutMin",
          "type": "uint256"
        },
        {
          "internalType": "address[]",
          "name": "path",
          "type": "address[]"
        },
        {
          "internalType": "address",
          "name": "to",
          "type": "address"
        },
        {
          "internalType": "uint256",
          "name": "deadline",
          "type": "uint256"
        }
      ],
      "name": "swapExactTokensForTokens",
      "outputs": [
        {
          "internalType": "uint256[]",
          "name": "amounts",
          "type": "uint256[]"
        }
      ],
      "stateMutability": "nonpayable",
      "type": "function"
    }
  ],
  "bytecode": "0x608060405234801561001057600080fd5b5060405161080838038061080883398101604081905261002f91610054565b600080546001600160a01b0319166001600160a01b0392909216919091179055610084565b60006020828403121561006657600080fd5b81516001600160a01b038116811461007d57600080fd5b9392505050565b610775806100936000396000f3fe608060405234801561001057600080fd5b50600436106100575760003560e01c806338ed17391461005c5780637efad8e014610085578063c45a01551461009b578063d06ca61f146100c6578063faa5f0d9146100d9575b600080fd5b61006f61006a36600461054e565b6100e1565b60405161007c91906105be565b60405180910390f35b61008d606481565b60405190815260200161007c565b6000546100ae906001600160a01b031681565b6040516001600160a01b03909116815260200161007c565b61006f6100d4366004610602565b6103b1565b61008d606e81565b6060428210156101385760405162461bcd60e51b815260206004820152601860248201527f556e69737761705632526f757465723a2045585049524544000000000000000060448201526064015b60405180910390fd5b60028410156101895760405162461bcd60e51b815260206004820152601d60248201527f556e69737761705632526f757465723a20494e56414c49445f50415448000000604482015260640161012f565b8367ffffffffffffffff8111156101a2576101a261064e565b6040519080825280602002602001820160405280156101cb578160200160208202803683370190505b50905086816000815181106101e2576101e2610664565b6020026020010181815250508484600081811061020157610201610664565b9050602002016020810190610216919061067a565b6040516323b872dd60e01b8152336004820152306024820152604481018990526001600160a01b0391909116906323b872dd906064016020604051808303816000875af115801561026b573d6000803e3d6000fd5b505050506040513d601f19601f8201168201806040525081019061028f919061069c565b50606461029d606e896106d4565b6102a791906106f1565b816102b3600187610713565b815181106102c3576102c3610664565b602090810291909101015284846102db600182610713565b8181106102ea576102ea610664565b90506020020160208101906102ff919061067a565b6001600160a01b031663a9059cbb848361031a600189610713565b8151811061032a5761032a610664565b60200260200101516040518363ffffffff1660e01b81526004016103639291906001600160a01b03929092168252602082015260400190565b6020604051808303816000875af1158015610382573d6000803e3d6000fd5b505050506040513d601f19601f820116820180604052508101906103a6919061069c565b509695505050505050565b606060028210156104045760405162461bcd60e51b815260206004820152601d60248201527f556e69737761705632526f757465723a20494e56414c49445f50415448000000604482015260640161012f565b8167ffffffffffffffff81111561041d5761041d61064e565b604051908082528060200260200182016040528015610446578160200160208202803683370190505b509050838160008151811061045d5761045d610664565b602090810291909101015260015b828110156104de576064606e83610483600185610713565b8151811061049357610493610664565b60200260200101516104a591906106d4565b6104af91906106f1565b8282815181106104c1576104c1610664565b6020908102919091010152806104d681610726565b91505061046b565b509392505050565b60008083601f8401126104f857600080fd5b50813567ffffffffffffffff81111561051057600080fd5b6020830191508360208260051b850101111561052b57600080fd5b9250929050565b80356001600160a01b038116811461054957600080fd5b919050565b60008060008060008060a0878903121561056757600080fd5b8635955060208701359450604087013567ffffffffffffffff81111561058c57600080fd5b61059889828a016104e6565b90955093506105ab905060608801610532565b9150608087013590509295509295509295565b6020808252825182820181905260009190848201906040850190845b818110156105f6578351835292840192918401916001016105da565b50909695505050505050565b60008060006040848603121561061757600080fd5b83359250602084013567ffffffffffffffff81111561063557600080fd5b610641868287016104e6565b9497909650939450505050565b634e487b7160e01b600052604160045260246000fd5b634e487b7160e01b600052603260045260246000fd5b60006020828403121561068c57600080fd5b61069582610532565b9392505050565b6000602082840312156106ae57600080fd5b8151801515811461069557600080fd5b634e487b7160e01b600052601160045260246000fd5b80820281158282048414176106eb576106eb6106be565b92915050565b60008261070e57634e487b7160e01b600052601260045260246000fd5b500490565b818103818111156106eb576106eb6106be565b600060018201610738576107386106be565b506001019056fea26469706673582212202858d3681e01fc4d85370a126a553161701a9d40028916347571e1a0ec0f851364736f6c63430008130033",
  "linkReferences": {},
  "deployedLinkReferences": {}
}