{
  "_format": "hh-sol-artifact-1",
  "contractName": "SnipingBotTest",
  "sourceName": "contracts/SnipingBotTest.sol",
  "abi": [
    {
      "inputs": [
        {
          "internalType": "address",
          "name": "_uniswapRouter",
          "type": "address"
        },
        {
          "internalType": "address",
          "name": "_uniswapFactory",
          "type": "address"
        }
      ],
      "stateMutability": "nonpayable",
      "type": "constructor"
    },
    {
      "anonymous": false,
      "inputs": [
        {
          "indexed": false,
          "internalType": "string",
          "name": "testName",
          "type": "string"
        },
        {
          "indexed": false,
          "internalType": "bool",
          "name": "success",
          "type": "bool"
        }
      ],
      "name": "TestCompleted",
      "type": "event"
    },
    {
      "anonymous": false,
      "inputs": [
        {
          "indexed": false,
          "internalType": "string",
          "name": "testName",
          "type": "string"
        }
      ],
      "name": "TestStarted",
      "type": "event"
    },
    {
      "inputs": [],
      "name": "snipingBot",
      "outputs": [
        {
          "internalType": "contract SnipingBot",
          "name": "",
          "type": "address"
        }
      ],
      "stateMutability": "view",
      "type": "function"
    },
    {
      "inputs": [
        {
          "internalType": "uint256",
          "name": "amountIn",
          "type": "uint256"
        }
      ],
      "name": "testArbitrageCalculation",
      "outputs": [],
      "stateMutability": "nonpayable",
      "type": "function"
    },
    {
      "inputs": [
        {
          "internalType": "uint256",
          "name": "amountIn",
          "type": "uint256"
        }
      ],
      "name": "testMinimumSnipe",
      "outputs": [],
      "stateMutability": "nonpayable",
      "type": "function"
    },
    {
      "inputs": [],
      "name": "testTokenA",
      "outputs": [
        {
          "internalType": "address",
          "name": "",
          "type": "address"
        }
      ],
      "stateMutability": "view",
      "type": "function"
    },
    {
      "inputs": [],
      "name": "testTokenB",
      "outputs": [
        {
          "internalType": "address",
          "name": "",
          "type": "address"
        }
      ],
      "stateMutability": "view",
      "type": "function"
    },
    {
      "inputs": [
        {
          "internalType": "address",
          "name": "tokenA",
          "type": "address"
        },
        {
          "internalType": "address",
          "name": "tokenB",
          "type": "address"
        }
      ],
      "name": "testWhitelisting",
      "outputs": [],
      "stateMutability": "nonpayable",
      "type": "function"
    },
    {
      "inputs": [],
      "name": "testWithdrawals",
      "outputs": [],
      "stateMutability": "nonpayable",
      "type": "function"
    }
  ],
  "bytecode": "0x608060405234801561001057600080fd5b50604051611e6d380380611e6d83398101604081905261002f9161010e565b818160405161003d906100e5565b6001600160a01b03928316815291166020820152604001604051809103906000f080158015610070573d6000803e3d6000fd5b50600080546001600160a01b0319166001600160a01b0392909216918217905560405163f2fde38b60e01b815233600482015263f2fde38b90602401600060405180830381600087803b1580156100c657600080fd5b505af11580156100da573d6000803e3d6000fd5b505050505050610141565b61112c80610d4183390190565b80516001600160a01b038116811461010957600080fd5b919050565b6000806040838503121561012157600080fd5b61012a836100f2565b9150610138602084016100f2565b90509250929050565b610bf1806101506000396000f3fe608060405234801561001057600080fd5b506004361061007d5760003560e01c8063a0b3091f1161005b578063a0b3091f146100ce578063a1ee198c146100e1578063a96fb9b4146100f4578063f92443081461010757600080fd5b8063106d4452146100825780635d08cebf146100975780639b2e3bae146100c6575b600080fd5b6100956100903660046108b6565b61011a565b005b6002546100aa906001600160a01b031681565b6040516001600160a01b03909116815260200160405180910390f35b6100956103c8565b6100956100dc3660046108e9565b610606565b6100956100ef3660046108e9565b610713565b6001546100aa906001600160a01b031681565b6000546100aa906001600160a01b031681565b600080516020610b7c83398151915260405161013590610902565b60405180910390a1600054604051630ffb1d8b60e01b81526001600160a01b0384811660048301526001602483015290911690630ffb1d8b90604401600060405180830381600087803b15801561018b57600080fd5b505af115801561019f573d6000803e3d6000fd5b5050600054604051630ffb1d8b60e01b81526001600160a01b038581166004830152600160248301529091169250630ffb1d8b9150604401600060405180830381600087803b1580156101f157600080fd5b505af1158015610205573d6000803e3d6000fd5b5050600054604051630daf9c2160e41b81526001600160a01b038681166004830152909116925063daf9c2109150602401602060405180830381865afa158015610253573d6000803e3d6000fd5b505050506040513d601f19601f820116820180604052508101906102779190610939565b6102c15760405162461bcd60e51b8152602060048201526016602482015275151bdad95b90481b9bdd081dda1a5d195b1a5cdd195960521b60448201526064015b60405180910390fd5b600054604051630daf9c2160e41b81526001600160a01b0383811660048301529091169063daf9c21090602401602060405180830381865afa15801561030b573d6000803e3d6000fd5b505050506040513d601f19601f8201168201806040525081019061032f9190610939565b6103745760405162461bcd60e51b8152602060048201526016602482015275151bdad95b90881b9bdd081dda1a5d195b1a5cdd195960521b60448201526064016102b8565b600180546001600160a01b038085166001600160a01b03199283161783556002805491851691909216179055604051600080516020610b9c833981519152916103bc91610962565b60405180910390a15050565b600080516020610b7c8339815191526040516104089060208082526010908201526f15da5d1a191c985dd85b1cc815195cdd60821b604082015260600190565b60405180910390a16000805460408051633821b97b60e21b815290516001600160a01b039092169263e086e5ec9260048084019382900301818387803b15801561045157600080fd5b505af1925050508015610462575060015b6104b55760408051818152601381830152721155120815da5d1a191c985dd85b0815195cdd606a1b6060820152600060208201529051600080516020610b9c8339815191529181900360800190a1610500565b60408051818152601381830152721155120815da5d1a191c985dd85b0815195cdd606a1b6060820152600160208201529051600080516020610b9c8339815191529181900360800190a15b6000546001546040516313c5035360e31b81526001600160a01b0391821660048201526103e86024820152911690639e281a9890604401600060405180830381600087803b15801561055157600080fd5b505af1925050508015610562575060015b6105b9576040805181815260159181019190915274151bdad95b8815da5d1a191c985dd85b0815195cdd605a1b606082015260006020820152600080516020610b9c833981519152906080015b60405180910390a1565b6040805181815260159181019190915274151bdad95b8815da5d1a191c985dd85b0815195cdd605a1b606082015260016020820152600080516020610b9c833981519152906080016105af565b600080516020610b7c833981519152604051610621906109a3565b60405180910390a16000805460015460025460405163b0ec661160e01b81526001600160a01b03928316600482015290821660248201526044810185905291169063b0ec661190606401602060405180830381865afa158015610688573d6000803e3d6000fd5b505050506040513d601f19601f820116820180604052508101906106ac91906109e0565b9050600081116106f55760405162461bcd60e51b8152602060048201526014602482015273139bc81c1c9bd99a5d0818d85b18dd5b185d195960621b60448201526064016102b8565b600080516020610b9c83398151915260016040516103bc91906109f9565b600080516020610b7c83398151915260405161072e90610a36565b60405180910390a160015460005460405163095ea7b360e01b81526001600160a01b0391821660048201526024810184905291169063095ea7b3906044016020604051808303816000875af115801561078b573d6000803e3d6000fd5b505050506040513d601f19601f820116820180604052508101906107af9190610939565b50600054600154600254604051631002f01360e01b81526001600160a01b039283166004820152908216602482015260448101849052911690631002f01390606401600060405180830381600087803b15801561080b57600080fd5b505af192505050801561081c575060015b61087157610828610a68565b806308c379a003610865575061083c610abf565b806108475750610867565b600080516020610b9c83398151915260006040516103bc9190610b49565b505b3d6000803e3d6000fd5b600080516020610b9c833981519152600160405161088f9190610b49565b60405180910390a150565b80356001600160a01b03811681146108b157600080fd5b919050565b600080604083850312156108c957600080fd5b6108d28361089a565b91506108e06020840161089a565b90509250929050565b6000602082840312156108fb57600080fd5b5035919050565b60208152600061093360208301601181527015da1a5d195b1a5cdd1a5b99c815195cdd607a1b602082015260400190565b92915050565b60006020828403121561094b57600080fd5b8151801515811461095b57600080fd5b9392505050565b60408152600061099360408301601181527015da1a5d195b1a5cdd1a5b99c815195cdd607a1b602082015260400190565b9050821515602083015292915050565b60208152600061093360208301601a81527f4172626974726167652043616c63756c6174696f6e2054657374000000000000602082015260400190565b6000602082840312156109f257600080fd5b5051919050565b60408152600061099360408301601a81527f4172626974726167652043616c63756c6174696f6e2054657374000000000000602082015260400190565b602081526000610933602083016012815271135a5b9a5b5d5b4814db9a5c194815195cdd60721b602082015260400190565b600060033d1115610a815760046000803e5060005160e01c5b90565b601f8201601f1916810167ffffffffffffffff81118282101715610ab857634e487b7160e01b600052604160045260246000fd5b6040525050565b600060443d1015610acd5790565b6040516003193d81016004833e81513d67ffffffffffffffff8160248401118184111715610afd57505050505090565b8285019150815181811115610b155750505050505090565b843d8701016020828501011115610b2f5750505050505090565b610b3e60208286010187610a84565b509095945050505050565b604081526000610993604083016012815271135a5b9a5b5d5b4814db9a5c194815195cdd60721b60208201526040019056fe75b82ee0cab9129c4657f3aa64e1413621ba3c416d81845ab355bfbe08b3efa6eb9020a64b27a64d36c46d5e4f002c6a445f35e34158fd0c5be583dd4e84debba26469706673582212200f498358ade0c4a4d76956833e55f1294970ddecddd27c58f3ce3bb47f4efab564736f6c6343000813003360c06040523480156200001157600080fd5b506040516200112c3803806200112c83398101604081905262000034916200018a565b6200003f336200011d565b600180556001600160a01b0382166200009f5760405162461bcd60e51b815260206004820152601660248201527f496e76616c696420726f7574657220616464726573730000000000000000000060448201526064015b60405180910390fd5b6001600160a01b038116620000f75760405162461bcd60e51b815260206004820152601760248201527f496e76616c696420666163746f72792061646472657373000000000000000000604482015260640162000096565b6001600160a01b03808316608052811660a05262000115336200011d565b5050620001c2565b600080546001600160a01b038381166001600160a01b0319831681178455604051919092169283917f8be0079c531659141344cd1fd0a4f28419497f9722a3daafe3b4186f6b6457e09190a35050565b80516001600160a01b03811681146200018557600080fd5b919050565b600080604083850312156200019e57600080fd5b620001a9836200016d565b9150620001b9602084016200016d565b90509250929050565b60805160a051610f2f620001fd600039600061015b01526000818161010a0152818161046e0152818161056f01526108f00152610f2f6000f3fe60806040526004361061009a5760003560e01c80638da5cb5b116100615780638da5cb5b1461017d5780639e281a981461019b578063b0ec6611146101bb578063daf9c210146101e9578063e086e5ec14610229578063f2fde38b1461023e57005b80630ffb1d8b146100a35780631002f013146100c3578063715018a6146100e3578063735de9f7146100f85780638bdb2afa1461014957005b366100a157005b005b3480156100af57600080fd5b506100a16100be366004610c50565b61025e565b3480156100cf57600080fd5b506100a16100de366004610c87565b6102e4565b3480156100ef57600080fd5b506100a161068e565b34801561010457600080fd5b5061012c7f000000000000000000000000000000000000000000000000000000000000000081565b6040516001600160a01b0390911681526020015b60405180910390f35b34801561015557600080fd5b5061012c7f000000000000000000000000000000000000000000000000000000000000000081565b34801561018957600080fd5b506000546001600160a01b031661012c565b3480156101a757600080fd5b506100a16101b6366004610cc3565b6106a2565b3480156101c757600080fd5b506101db6101d6366004610c87565b6107da565b604051908152602001610140565b3480156101f557600080fd5b50610219610204366004610ced565b60026020526000908152604090205460ff1681565b6040519015158152602001610140565b34801561023557600080fd5b506100a16109c2565b34801561024a57600080fd5b506100a1610259366004610ced565b610aaa565b610266610b23565b6001600160a01b0382166102b95760405162461bcd60e51b8152602060048201526015602482015274496e76616c696420746f6b656e206164647265737360581b60448201526064015b60405180910390fd5b6001600160a01b03919091166000908152600260205260409020805460ff1916911515919091179055565b6102ec610b23565b6102f4610b7d565b6001600160a01b03831660009081526002602052604090205460ff16801561033457506001600160a01b03821660009081526002602052604090205460ff165b6103795760405162461bcd60e51b8152602060048201526016602482015275151bdad95b9cc81b9bdd081dda1a5d195b1a5cdd195960521b60448201526064016102b0565b60006103868484846107da565b9050662386f26fc100008110156103df5760405162461bcd60e51b815260206004820152601a60248201527f496e73756666696369656e742070726f666974206d617267696e00000000000060448201526064016102b0565b6040516323b872dd60e01b8152336004820152306024820152604481018390526001600160a01b038516906323b872dd906064016020604051808303816000875af1158015610432573d6000803e3d6000fd5b505050506040513d601f19601f820116820180604052508101906104569190610d0f565b5060405163095ea7b360e01b81526001600160a01b037f0000000000000000000000000000000000000000000000000000000000000000811660048301526024820184905285169063095ea7b3906044016020604051808303816000875af11580156104c6573d6000803e3d6000fd5b505050506040513d601f19601f820116820180604052508101906104ea9190610d0f565b50604080516002808252606082018352600092602083019080368337019050509050848160008151811061052057610520610d42565b60200260200101906001600160a01b031690816001600160a01b031681525050838160018151811061055457610554610d42565b6001600160a01b0392831660209182029290920101526000907f0000000000000000000000000000000000000000000000000000000000000000166338ed1739858385306105a461012c42610d6e565b6040518663ffffffff1660e01b81526004016105c4959493929190610dcb565b6000604051808303816000875af11580156105e3573d6000803e3d6000fd5b505050506040513d6000823e601f3d908101601f1916820160405261060b9190810190610e07565b9050846001600160a01b0316866001600160a01b03167fcfaae44f59cdc0459335ad7fa6324241a4e86a442fc914e1aea4f2076aba7a50868460018151811061065657610656610d42565b6020908102919091018101516040805193845291830152429082015260600160405180910390a350505061068960018055565b505050565b610696610b23565b6106a06000610bd6565b565b6106aa610b23565b6001600160a01b0382166106f85760405162461bcd60e51b8152602060048201526015602482015274496e76616c696420746f6b656e206164647265737360581b60448201526064016102b0565b600081116107485760405162461bcd60e51b815260206004820152601d60248201527f416d6f756e74206d7573742062652067726561746572207468616e203000000060448201526064016102b0565b816001600160a01b031663a9059cbb6107696000546001600160a01b031690565b6040516001600160e01b031960e084901b1681526001600160a01b039091166004820152602481018490526044016020604051808303816000875af11580156107b6573d6000803e3d6000fd5b505050506040513d601f19601f820116820180604052508101906106899190610d0f565b6001600160a01b03831660009081526002602052604081205460ff16801561081a57506001600160a01b03831660009081526002602052604090205460ff165b61085f5760405162461bcd60e51b8152602060048201526016602482015275151bdad95b9cc81b9bdd081dda1a5d195b1a5cdd195960521b60448201526064016102b0565b604080516002808252606082018352600092602083019080368337019050509050848160008151811061089457610894610d42565b60200260200101906001600160a01b031690816001600160a01b03168152505083816001815181106108c8576108c8610d42565b6001600160a01b03928316602091820292909201015260405163d06ca61f60e01b81526000917f0000000000000000000000000000000000000000000000000000000000000000169063d06ca61f906109279087908690600401610ec5565b600060405180830381865afa158015610944573d6000803e3d6000fd5b505050506040513d6000823e601f3d908101601f1916820160405261096c9190810190610e07565b9050838160018151811061098257610982610d42565b602002602001015111156109b95783816001815181106109a4576109a4610d42565b60200260200101516109b69190610ee6565b92505b50509392505050565b6109ca610b23565b4780610a0d5760405162461bcd60e51b81526020600482015260126024820152714e6f2045544820746f20776974686472617760701b60448201526064016102b0565b600080546040516001600160a01b039091169083908381818185875af1925050503d8060008114610a5a576040519150601f19603f3d011682016040523d82523d6000602084013e610a5f565b606091505b5050905080610aa65760405162461bcd60e51b8152602060048201526013602482015272115512081d1c985b9cd9995c8819985a5b1959606a1b60448201526064016102b0565b5050565b610ab2610b23565b6001600160a01b038116610b175760405162461bcd60e51b815260206004820152602660248201527f4f776e61626c653a206e6577206f776e657220697320746865207a65726f206160448201526564647265737360d01b60648201526084016102b0565b610b2081610bd6565b50565b6000546001600160a01b031633146106a05760405162461bcd60e51b815260206004820181905260248201527f4f776e61626c653a2063616c6c6572206973206e6f7420746865206f776e657260448201526064016102b0565b600260015403610bcf5760405162461bcd60e51b815260206004820152601f60248201527f5265656e7472616e637947756172643a207265656e7472616e742063616c6c0060448201526064016102b0565b6002600155565b600080546001600160a01b038381166001600160a01b0319831681178455604051919092169283917f8be0079c531659141344cd1fd0a4f28419497f9722a3daafe3b4186f6b6457e09190a35050565b80356001600160a01b0381168114610c3d57600080fd5b919050565b8015158114610b2057600080fd5b60008060408385031215610c6357600080fd5b610c6c83610c26565b91506020830135610c7c81610c42565b809150509250929050565b600080600060608486031215610c9c57600080fd5b610ca584610c26565b9250610cb360208501610c26565b9150604084013590509250925092565b60008060408385031215610cd657600080fd5b610cdf83610c26565b946020939093013593505050565b600060208284031215610cff57600080fd5b610d0882610c26565b9392505050565b600060208284031215610d2157600080fd5b8151610d0881610c42565b634e487b7160e01b600052604160045260246000fd5b634e487b7160e01b600052603260045260246000fd5b634e487b7160e01b600052601160045260246000fd5b80820180821115610d8157610d81610d58565b92915050565b600081518084526020808501945080840160005b83811015610dc05781516001600160a01b031687529582019590820190600101610d9b565b509495945050505050565b85815284602082015260a060408201526000610dea60a0830186610d87565b6001600160a01b0394909416606083015250608001529392505050565b60006020808385031215610e1a57600080fd5b825167ffffffffffffffff80821115610e3257600080fd5b818501915085601f830112610e4657600080fd5b815181811115610e5857610e58610d2c565b8060051b604051601f19603f83011681018181108582111715610e7d57610e7d610d2c565b604052918252848201925083810185019188831115610e9b57600080fd5b938501935b82851015610eb957845184529385019392850192610ea0565b98975050505050505050565b828152604060208201526000610ede6040830184610d87565b949350505050565b81810381811115610d8157610d81610d5856fea2646970667358221220abf23c7b2a664ade205efe601fc95816476205f8fda9098647050de9197c1fbf64736f6c63430008130033",
  "linkReferences": {},
  "deployedLinkReferences": {}
}